{
  "address": "0x5FbDB2315678afecb367f032d93F642f64180aa3",
  "abi": [
    {
      "inputs": [
        {
          "internalType": "string",
          "name": "tokenName",
          "type": "string"
        },
        {
          "internalType": "string",
          "name": "tokenSymbol",
          "type": "string"
        },
        {
          "internalType": "uint256",
          "name": "initialSupply",
          "type": "uint256"
        },
        {
          "internalType": "uint256",
          "name": "price",
          "type": "uint256"
        }
      ],
      "stateMutability": "nonpayable",
      "type": "constructor"
    },
    {
      "inputs": [],
      "name": "TokenM__NotEnoughETH",
      "type": "error"
    },
    {
      "inputs": [],
      "name": "TokenM__NotEnoughToken",
      "type": "error"
    },
    {
      "anonymous": false,
      "inputs": [
        {
          "indexed": true,
          "internalType": "address",
          "name": "user",
          "type": "address"
        },
        {
          "indexed": true,
          "internalType": "uint256",
          "name": "amount",
          "type": "uint256"
        }
      ],
      "name": "TokenIssued",
      "type": "event"
    },
    {
      "anonymous": false,
      "inputs": [
        {
          "indexed": true,
          "internalType": "address",
          "name": "sender",
          "type": "address"
        },
        {
          "indexed": true,
          "internalType": "address",
          "name": "receiver",
          "type": "address"
        },
        {
          "indexed": false,
          "internalType": "uint256",
          "name": "amount",
          "type": "uint256"
        }
      ],
      "name": "TokensTransferred",
      "type": "event"
    },
    {
      "inputs": [],
      "name": "PRICE",
      "outputs": [
        {
          "internalType": "uint256",
          "name": "",
          "type": "uint256"
        }
      ],
      "stateMutability": "view",
      "type": "function"
    },
    {
      "inputs": [
        {
          "internalType": "address",
          "name": "",
          "type": "address"
        }
      ],
      "name": "balance",
      "outputs": [
        {
          "internalType": "uint256",
          "name": "",
          "type": "uint256"
        }
      ],
      "stateMutability": "view",
      "type": "function"
    },
    {
      "inputs": [
        {
          "internalType": "address",
          "name": "user",
          "type": "address"
        }
      ],
      "name": "balanceOf",
      "outputs": [
        {
          "internalType": "uint256",
          "name": "",
          "type": "uint256"
        }
      ],
      "stateMutability": "view",
      "type": "function"
    },
    {
      "inputs": [],
      "name": "decimals",
      "outputs": [
        {
          "internalType": "uint8",
          "name": "",
          "type": "uint8"
        }
      ],
      "stateMutability": "view",
      "type": "function"
    },
    {
      "inputs": [],
      "name": "issueToken",
      "outputs": [],
      "stateMutability": "payable",
      "type": "function"
    },
    {
      "inputs": [],
      "name": "name",
      "outputs": [
        {
          "internalType": "string",
          "name": "",
          "type": "string"
        }
      ],
      "stateMutability": "view",
      "type": "function"
    },
    {
      "inputs": [],
      "name": "symbol",
      "outputs": [
        {
          "internalType": "string",
          "name": "",
          "type": "string"
        }
      ],
      "stateMutability": "view",
      "type": "function"
    },
    {
      "inputs": [],
      "name": "totalSupply",
      "outputs": [
        {
          "internalType": "uint256",
          "name": "",
          "type": "uint256"
        }
      ],
      "stateMutability": "view",
      "type": "function"
    },
    {
      "inputs": [
        {
          "internalType": "address",
          "name": "to",
          "type": "address"
        },
        {
          "internalType": "uint256",
          "name": "amount",
          "type": "uint256"
        }
      ],
      "name": "transfer",
      "outputs": [
        {
          "internalType": "bool",
          "name": "success",
          "type": "bool"
        }
      ],
      "stateMutability": "nonpayable",
      "type": "function"
    }
  ],
  "transactionHash": "0xbb7f15bb31a1a24bb250473d856bc0e8ab225b4d7517715d8b1b9fe291a26b6d",
  "args": [
    "DWOLF",
    "DW",
    "1000",
    "80000000000000000"
  ],
  "numDeployments": 1,
  "solcInputHash": "e05b3c1ed4041134510fe5e1fefdd69d",
  "bytecode": "0x60806040526012600260006101000a81548160ff021916908360ff1602179055503480156200002d57600080fd5b50604051620013e3380380620013e383398181016040528101906200005391906200020f565b83600090805190602001906200006b929190620000ca565b50826001908051906020019062000084929190620000ca565b50600260009054906101000a900460ff1660ff16600a620000a6919062000379565b82620000b39190620004b6565b60038190555080600481905550505050506200069c565b828054620000d89062000557565b90600052602060002090601f016020900481019282620000fc576000855562000148565b82601f106200011757805160ff191683800117855562000148565b8280016001018555821562000148579182015b82811115620001475782518255916020019190600101906200012a565b5b5090506200015791906200015b565b5090565b5b80821115620001765760008160009055506001016200015c565b5090565b6000620001916200018b84620002e8565b620002bf565b905082815260208101848484011115620001b057620001af62000655565b5b620001bd84828562000521565b509392505050565b600082601f830112620001dd57620001dc62000650565b5b8151620001ef8482602086016200017a565b91505092915050565b600081519050620002098162000682565b92915050565b600080600080608085870312156200022c576200022b6200065f565b5b600085015167ffffffffffffffff8111156200024d576200024c6200065a565b5b6200025b87828801620001c5565b945050602085015167ffffffffffffffff8111156200027f576200027e6200065a565b5b6200028d87828801620001c5565b9350506040620002a087828801620001f8565b9250506060620002b387828801620001f8565b91505092959194509250565b6000620002cb620002de565b9050620002d982826200058d565b919050565b6000604051905090565b600067ffffffffffffffff82111562000306576200030562000621565b5b620003118262000664565b9050602081019050919050565b6000808291508390505b60018511156200037057808604811115620003485762000347620005c3565b5b6001851615620003585780820291505b8081029050620003688562000675565b945062000328565b94509492505050565b6000620003868262000517565b9150620003938362000517565b9250620003c27fffffffffffffffffffffffffffffffffffffffffffffffffffffffffffffffff8484620003ca565b905092915050565b600082620003dc5760019050620004af565b81620003ec5760009050620004af565b8160018114620004055760028114620004105762000446565b6001915050620004af565b60ff841115620004255762000424620005c3565b5b8360020a9150848211156200043f576200043e620005c3565b5b50620004af565b5060208310610133831016604e8410600b8410161715620004805782820a9050838111156200047a5762000479620005c3565b5b620004af565b6200048f84848460016200031e565b92509050818404811115620004a957620004a8620005c3565b5b81810290505b9392505050565b6000620004c38262000517565b9150620004d08362000517565b9250817fffffffffffffffffffffffffffffffffffffffffffffffffffffffffffffffff04831182151516156200050c576200050b620005c3565b5b828202905092915050565b6000819050919050565b60005b838110156200054157808201518184015260208101905062000524565b8381111562000551576000848401525b50505050565b600060028204905060018216806200057057607f821691505b60208210811415620005875762000586620005f2565b5b50919050565b620005988262000664565b810181811067ffffffffffffffff82111715620005ba57620005b962000621565b5b80604052505050565b7f4e487b7100000000000000000000000000000000000000000000000000000000600052601160045260246000fd5b7f4e487b7100000000000000000000000000000000000000000000000000000000600052602260045260246000fd5b7f4e487b7100000000000000000000000000000000000000000000000000000000600052604160045260246000fd5b600080fd5b600080fd5b600080fd5b600080fd5b6000601f19601f8301169050919050565b60008160011c9050919050565b6200068d8162000517565b81146200069957600080fd5b50565b610d3780620006ac6000396000f3fe6080604052600436106100865760003560e01c80638d859f3e116100595780638d859f3e1461014957806395d89b4114610174578063a1ee8c781461019f578063a9059cbb146101a9578063e3d670d7146101e657610086565b806306fdde031461008b57806318160ddd146100b6578063313ce567146100e157806370a082311461010c575b600080fd5b34801561009757600080fd5b506100a0610223565b6040516100ad919061086f565b60405180910390f35b3480156100c257600080fd5b506100cb6102b1565b6040516100d89190610891565b60405180910390f35b3480156100ed57600080fd5b506100f66102b7565b60405161010391906108ac565b60405180910390f35b34801561011857600080fd5b50610133600480360381019061012e9190610781565b6102ca565b6040516101409190610891565b60405180910390f35b34801561015557600080fd5b5061015e61034c565b60405161016b9190610891565b60405180910390f35b34801561018057600080fd5b50610189610352565b604051610196919061086f565b60405180910390f35b6101a76103e0565b005b3480156101b557600080fd5b506101d060048036038101906101cb91906107ae565b61059d565b6040516101dd9190610854565b60405180910390f35b3480156101f257600080fd5b5061020d60048036038101906102089190610781565b61073f565b60405161021a9190610891565b60405180910390f35b6000805461023090610bf1565b80601f016020809104026020016040519081016040528092919081815260200182805461025c90610bf1565b80156102a95780601f1061027e576101008083540402835291602001916102a9565b820191906000526020600020905b81548152906001019060200180831161028c57829003601f168201915b505050505081565b60035481565b600260009054906101000a900460ff1681565b60008073ffffffffffffffffffffffffffffffffffffffff168273ffffffffffffffffffffffffffffffffffffffff16141561030557600080fd5b600560008373ffffffffffffffffffffffffffffffffffffffff1673ffffffffffffffffffffffffffffffffffffffff168152602001908152602001600020549050919050565b60045481565b6001805461035f90610bf1565b80601f016020809104026020016040519081016040528092919081815260200182805461038b90610bf1565b80156103d85780601f106103ad576101008083540402835291602001916103d8565b820191906000526020600020905b8154815290600101906020018083116103bb57829003601f168201915b505050505081565b670de0b6b3a764000060035410156103f757600080fd5b600073ffffffffffffffffffffffffffffffffffffffff163373ffffffffffffffffffffffffffffffffffffffff16141561043157600080fd5b60045434101561046d576040517f2a8f135000000000000000000000000000000000000000000000000000000000815260040160405180910390fd5b60003490506000600454600260009054906101000a900460ff16600a61049391906109bd565b8361049e9190610adb565b6104a89190610939565b90506003548111156104e6576040517f650dc1f500000000000000000000000000000000000000000000000000000000815260040160405180910390fd5b80600560003373ffffffffffffffffffffffffffffffffffffffff1673ffffffffffffffffffffffffffffffffffffffff168152602001908152602001600020600082825461053591906108e3565b92505081905550806003600082825461054e9190610b35565b92505081905550803373ffffffffffffffffffffffffffffffffffffffff167fcd04e188e9e3af769a0f103b290535c8758dbdd6e8b2d7f33aaaf2dc38e4b15160405160405180910390a35050565b60008073ffffffffffffffffffffffffffffffffffffffff168373ffffffffffffffffffffffffffffffffffffffff1614156105d857600080fd5b81600560003373ffffffffffffffffffffffffffffffffffffffff1673ffffffffffffffffffffffffffffffffffffffff16815260200190815260200160002054101561062457600080fd5b81600560003373ffffffffffffffffffffffffffffffffffffffff1673ffffffffffffffffffffffffffffffffffffffff16815260200190815260200160002060008282546106739190610b35565b9250508190555081600560008573ffffffffffffffffffffffffffffffffffffffff1673ffffffffffffffffffffffffffffffffffffffff16815260200190815260200160002060008282546106c991906108e3565b925050819055508273ffffffffffffffffffffffffffffffffffffffff163373ffffffffffffffffffffffffffffffffffffffff167f1b89874203ff7f0bba87c969ada3f32fda22ed38a6706d35199d21280c7811b18460405161072d9190610891565b60405180910390a36001905092915050565b60056020528060005260406000206000915090505481565b60008135905061076681610cd3565b92915050565b60008135905061077b81610cea565b92915050565b60006020828403121561079757610796610cb0565b5b60006107a584828501610757565b91505092915050565b600080604083850312156107c5576107c4610cb0565b5b60006107d385828601610757565b92505060206107e48582860161076c565b9150509250929050565b6107f781610b7b565b82525050565b6000610808826108c7565b61081281856108d2565b9350610822818560208601610bbe565b61082b81610cb5565b840191505092915050565b61083f81610ba7565b82525050565b61084e81610bb1565b82525050565b600060208201905061086960008301846107ee565b92915050565b6000602082019050818103600083015261088981846107fd565b905092915050565b60006020820190506108a66000830184610836565b92915050565b60006020820190506108c16000830184610845565b92915050565b600081519050919050565b600082825260208201905092915050565b60006108ee82610ba7565b91506108f983610ba7565b9250827fffffffffffffffffffffffffffffffffffffffffffffffffffffffffffffffff0382111561092e5761092d610c23565b5b828201905092915050565b600061094482610ba7565b915061094f83610ba7565b92508261095f5761095e610c52565b5b828204905092915050565b6000808291508390505b60018511156109b4578086048111156109905761098f610c23565b5b600185161561099f5780820291505b80810290506109ad85610cc6565b9450610974565b94509492505050565b60006109c882610ba7565b91506109d383610bb1565b9250610a007fffffffffffffffffffffffffffffffffffffffffffffffffffffffffffffffff8484610a08565b905092915050565b600082610a185760019050610ad4565b81610a265760009050610ad4565b8160018114610a3c5760028114610a4657610a75565b6001915050610ad4565b60ff841115610a5857610a57610c23565b5b8360020a915084821115610a6f57610a6e610c23565b5b50610ad4565b5060208310610133831016604e8410600b8410161715610aaa5782820a905083811115610aa557610aa4610c23565b5b610ad4565b610ab7848484600161096a565b92509050818404811115610ace57610acd610c23565b5b81810290505b9392505050565b6000610ae682610ba7565b9150610af183610ba7565b9250817fffffffffffffffffffffffffffffffffffffffffffffffffffffffffffffffff0483118215151615610b2a57610b29610c23565b5b828202905092915050565b6000610b4082610ba7565b9150610b4b83610ba7565b925082821015610b5e57610b5d610c23565b5b828203905092915050565b6000610b7482610b87565b9050919050565b60008115159050919050565b600073ffffffffffffffffffffffffffffffffffffffff82169050919050565b6000819050919050565b600060ff82169050919050565b60005b83811015610bdc578082015181840152602081019050610bc1565b83811115610beb576000848401525b50505050565b60006002820490506001821680610c0957607f821691505b60208210811415610c1d57610c1c610c81565b5b50919050565b7f4e487b7100000000000000000000000000000000000000000000000000000000600052601160045260246000fd5b7f4e487b7100000000000000000000000000000000000000000000000000000000600052601260045260246000fd5b7f4e487b7100000000000000000000000000000000000000000000000000000000600052602260045260246000fd5b600080fd5b6000601f19601f8301169050919050565b60008160011c9050919050565b610cdc81610b69565b8114610ce757600080fd5b50565b610cf381610ba7565b8114610cfe57600080fd5b5056fea2646970667358221220dfa8043ad4536bc2dbb6aa3cb07761bc809b875e9da1d08d0e0fce7ce21fcb8e64736f6c63430008070033",
  "devdoc": {
    "kind": "dev",
    "methods": {},
    "version": 1
  },
  "userdoc": {
    "kind": "user",
    "methods": {},
    "version": 1
  },
  "storageLayout": {
    "storage": [
      {
        "astId": 7,
        "contract": "contracts/TokenM.sol:TokenM",
        "label": "name",
        "offset": 0,
        "slot": "0",
        "type": "t_string_storage"
      },
      {
        "astId": 9,
        "contract": "contracts/TokenM.sol:TokenM",
        "label": "symbol",
        "offset": 0,
        "slot": "1",
        "type": "t_string_storage"
      },
      {
        "astId": 12,
        "contract": "contracts/TokenM.sol:TokenM",
        "label": "decimals",
        "offset": 0,
        "slot": "2",
        "type": "t_uint8"
      },
      {
        "astId": 14,
        "contract": "contracts/TokenM.sol:TokenM",
        "label": "totalSupply",
        "offset": 0,
        "slot": "3",
        "type": "t_uint256"
      },
      {
        "astId": 16,
        "contract": "contracts/TokenM.sol:TokenM",
        "label": "PRICE",
        "offset": 0,
        "slot": "4",
        "type": "t_uint256"
      },
      {
        "astId": 20,
        "contract": "contracts/TokenM.sol:TokenM",
        "label": "balance",
        "offset": 0,
        "slot": "5",
        "type": "t_mapping(t_address,t_uint256)"
      }
    ],
    "types": {
      "t_address": {
        "encoding": "inplace",
        "label": "address",
        "numberOfBytes": "20"
      },
      "t_mapping(t_address,t_uint256)": {
        "encoding": "mapping",
        "key": "t_address",
        "label": "mapping(address => uint256)",
        "numberOfBytes": "32",
        "value": "t_uint256"
      },
      "t_string_storage": {
        "encoding": "bytes",
        "label": "string",
        "numberOfBytes": "32"
      },
      "t_uint256": {
        "encoding": "inplace",
        "label": "uint256",
        "numberOfBytes": "32"
      },
      "t_uint8": {
        "encoding": "inplace",
        "label": "uint8",
        "numberOfBytes": "1"
      }
    }
  }
}