{
  "address": "0x5FbDB2315678afecb367f032d93F642f64180aa3",
  "abi": [
    {
      "inputs": [
        {
          "internalType": "string",
          "name": "tokenName",
          "type": "string"
        },
        {
          "internalType": "string",
          "name": "tokenSymbol",
          "type": "string"
        },
        {
          "internalType": "uint256",
          "name": "initialSupply",
          "type": "uint256"
        },
        {
          "internalType": "uint256",
          "name": "price",
          "type": "uint256"
        }
      ],
      "stateMutability": "nonpayable",
      "type": "constructor"
    },
    {
      "inputs": [],
      "name": "TokenM__NotEnoughETH",
      "type": "error"
    },
    {
      "anonymous": false,
      "inputs": [
        {
          "indexed": true,
          "internalType": "address",
          "name": "user",
          "type": "address"
        },
        {
          "indexed": true,
          "internalType": "uint256",
          "name": "amount",
          "type": "uint256"
        }
      ],
      "name": "TokenIssued",
      "type": "event"
    },
    {
      "anonymous": false,
      "inputs": [
        {
          "indexed": true,
          "internalType": "address",
          "name": "sender",
          "type": "address"
        },
        {
          "indexed": true,
          "internalType": "address",
          "name": "receiver",
          "type": "address"
        },
        {
          "indexed": false,
          "internalType": "uint256",
          "name": "amount",
          "type": "uint256"
        }
      ],
      "name": "TokensTransferred",
      "type": "event"
    },
    {
      "inputs": [],
      "name": "PRICE",
      "outputs": [
        {
          "internalType": "uint256",
          "name": "",
          "type": "uint256"
        }
      ],
      "stateMutability": "view",
      "type": "function"
    },
    {
      "inputs": [
        {
          "internalType": "address",
          "name": "",
          "type": "address"
        }
      ],
      "name": "balance",
      "outputs": [
        {
          "internalType": "uint256",
          "name": "",
          "type": "uint256"
        }
      ],
      "stateMutability": "view",
      "type": "function"
    },
    {
      "inputs": [
        {
          "internalType": "address",
          "name": "user",
          "type": "address"
        }
      ],
      "name": "balanceOf",
      "outputs": [
        {
          "internalType": "uint256",
          "name": "",
          "type": "uint256"
        }
      ],
      "stateMutability": "view",
      "type": "function"
    },
    {
      "inputs": [],
      "name": "decimals",
      "outputs": [
        {
          "internalType": "uint8",
          "name": "",
          "type": "uint8"
        }
      ],
      "stateMutability": "view",
      "type": "function"
    },
    {
      "inputs": [],
      "name": "issueToken",
      "outputs": [],
      "stateMutability": "payable",
      "type": "function"
    },
    {
      "inputs": [],
      "name": "name",
      "outputs": [
        {
          "internalType": "string",
          "name": "",
          "type": "string"
        }
      ],
      "stateMutability": "view",
      "type": "function"
    },
    {
      "inputs": [],
      "name": "symbol",
      "outputs": [
        {
          "internalType": "string",
          "name": "",
          "type": "string"
        }
      ],
      "stateMutability": "view",
      "type": "function"
    },
    {
      "inputs": [],
      "name": "totalSupply",
      "outputs": [
        {
          "internalType": "uint256",
          "name": "",
          "type": "uint256"
        }
      ],
      "stateMutability": "view",
      "type": "function"
    },
    {
      "inputs": [
        {
          "internalType": "address",
          "name": "to",
          "type": "address"
        },
        {
          "internalType": "uint256",
          "name": "amount",
          "type": "uint256"
        }
      ],
      "name": "transfer",
      "outputs": [
        {
          "internalType": "bool",
          "name": "success",
          "type": "bool"
        }
      ],
      "stateMutability": "nonpayable",
      "type": "function"
    }
  ],
  "transactionHash": "0x7d2a9a9109c82f30ef05d9e1679fa9a084722571c5a1f3752826bc9b8b26d634",
  "args": [
    "DWOLF",
    "DW",
    "1000",
    "80000000000000000"
  ],
  "numDeployments": 1,
  "solcInputHash": "971b997fbf3358fbef565c4a20f34623",
  "bytecode": "0x60806040526012600260006101000a81548160ff021916908360ff1602179055503480156200002d57600080fd5b50604051620013a7380380620013a783398181016040528101906200005391906200020f565b83600090805190602001906200006b929190620000ca565b50826001908051906020019062000084929190620000ca565b50600260009054906101000a900460ff1660ff16600a620000a6919062000379565b82620000b39190620004b6565b60038190555080600481905550505050506200069c565b828054620000d89062000557565b90600052602060002090601f016020900481019282620000fc576000855562000148565b82601f106200011757805160ff191683800117855562000148565b8280016001018555821562000148579182015b82811115620001475782518255916020019190600101906200012a565b5b5090506200015791906200015b565b5090565b5b80821115620001765760008160009055506001016200015c565b5090565b6000620001916200018b84620002e8565b620002bf565b905082815260208101848484011115620001b057620001af62000655565b5b620001bd84828562000521565b509392505050565b600082601f830112620001dd57620001dc62000650565b5b8151620001ef8482602086016200017a565b91505092915050565b600081519050620002098162000682565b92915050565b600080600080608085870312156200022c576200022b6200065f565b5b600085015167ffffffffffffffff8111156200024d576200024c6200065a565b5b6200025b87828801620001c5565b945050602085015167ffffffffffffffff8111156200027f576200027e6200065a565b5b6200028d87828801620001c5565b9350506040620002a087828801620001f8565b9250506060620002b387828801620001f8565b91505092959194509250565b6000620002cb620002de565b9050620002d982826200058d565b919050565b6000604051905090565b600067ffffffffffffffff82111562000306576200030562000621565b5b620003118262000664565b9050602081019050919050565b6000808291508390505b60018511156200037057808604811115620003485762000347620005c3565b5b6001851615620003585780820291505b8081029050620003688562000675565b945062000328565b94509492505050565b6000620003868262000517565b9150620003938362000517565b9250620003c27fffffffffffffffffffffffffffffffffffffffffffffffffffffffffffffffff8484620003ca565b905092915050565b600082620003dc5760019050620004af565b81620003ec5760009050620004af565b8160018114620004055760028114620004105762000446565b6001915050620004af565b60ff841115620004255762000424620005c3565b5b8360020a9150848211156200043f576200043e620005c3565b5b50620004af565b5060208310610133831016604e8410600b8410161715620004805782820a9050838111156200047a5762000479620005c3565b5b620004af565b6200048f84848460016200031e565b92509050818404811115620004a957620004a8620005c3565b5b81810290505b9392505050565b6000620004c38262000517565b9150620004d08362000517565b9250817fffffffffffffffffffffffffffffffffffffffffffffffffffffffffffffffff04831182151516156200050c576200050b620005c3565b5b828202905092915050565b6000819050919050565b60005b838110156200054157808201518184015260208101905062000524565b8381111562000551576000848401525b50505050565b600060028204905060018216806200057057607f821691505b60208210811415620005875762000586620005f2565b5b50919050565b620005988262000664565b810181811067ffffffffffffffff82111715620005ba57620005b962000621565b5b80604052505050565b7f4e487b7100000000000000000000000000000000000000000000000000000000600052601160045260246000fd5b7f4e487b7100000000000000000000000000000000000000000000000000000000600052602260045260246000fd5b7f4e487b7100000000000000000000000000000000000000000000000000000000600052604160045260246000fd5b600080fd5b600080fd5b600080fd5b600080fd5b6000601f19601f8301169050919050565b60008160011c9050919050565b6200068d8162000517565b81146200069957600080fd5b50565b610cfb80620006ac6000396000f3fe6080604052600436106100865760003560e01c80638d859f3e116100595780638d859f3e1461014957806395d89b4114610174578063a1ee8c781461019f578063a9059cbb146101a9578063e3d670d7146101e657610086565b806306fdde031461008b57806318160ddd146100b6578063313ce567146100e157806370a082311461010c575b600080fd5b34801561009757600080fd5b506100a0610223565b6040516100ad9190610833565b60405180910390f35b3480156100c257600080fd5b506100cb6102b1565b6040516100d89190610855565b60405180910390f35b3480156100ed57600080fd5b506100f66102b7565b6040516101039190610870565b60405180910390f35b34801561011857600080fd5b50610133600480360381019061012e9190610745565b6102ca565b6040516101409190610855565b60405180910390f35b34801561015557600080fd5b5061015e61034c565b60405161016b9190610855565b60405180910390f35b34801561018057600080fd5b50610189610352565b6040516101969190610833565b60405180910390f35b6101a76103e0565b005b3480156101b557600080fd5b506101d060048036038101906101cb9190610772565b610561565b6040516101dd9190610818565b60405180910390f35b3480156101f257600080fd5b5061020d60048036038101906102089190610745565b610703565b60405161021a9190610855565b60405180910390f35b6000805461023090610bb5565b80601f016020809104026020016040519081016040528092919081815260200182805461025c90610bb5565b80156102a95780601f1061027e576101008083540402835291602001916102a9565b820191906000526020600020905b81548152906001019060200180831161028c57829003601f168201915b505050505081565b60035481565b600260009054906101000a900460ff1681565b60008073ffffffffffffffffffffffffffffffffffffffff168273ffffffffffffffffffffffffffffffffffffffff16141561030557600080fd5b600560008373ffffffffffffffffffffffffffffffffffffffff1673ffffffffffffffffffffffffffffffffffffffff168152602001908152602001600020549050919050565b60045481565b6001805461035f90610bb5565b80601f016020809104026020016040519081016040528092919081815260200182805461038b90610bb5565b80156103d85780601f106103ad576101008083540402835291602001916103d8565b820191906000526020600020905b8154815290600101906020018083116103bb57829003601f168201915b505050505081565b670de0b6b3a764000060035410156103f757600080fd5b600073ffffffffffffffffffffffffffffffffffffffff163373ffffffffffffffffffffffffffffffffffffffff16141561043157600080fd5b60045434101561046d576040517f2a8f135000000000000000000000000000000000000000000000000000000000815260040160405180910390fd5b60003490506000600454600260009054906101000a900460ff16600a6104939190610981565b8361049e9190610a9f565b6104a891906108fd565b905080600560003373ffffffffffffffffffffffffffffffffffffffff1673ffffffffffffffffffffffffffffffffffffffff16815260200190815260200160002060008282546104f991906108a7565b9250508190555080600360008282546105129190610af9565b92505081905550803373ffffffffffffffffffffffffffffffffffffffff167fcd04e188e9e3af769a0f103b290535c8758dbdd6e8b2d7f33aaaf2dc38e4b15160405160405180910390a35050565b60008073ffffffffffffffffffffffffffffffffffffffff168373ffffffffffffffffffffffffffffffffffffffff16141561059c57600080fd5b81600560003373ffffffffffffffffffffffffffffffffffffffff1673ffffffffffffffffffffffffffffffffffffffff1681526020019081526020016000205410156105e857600080fd5b81600560003373ffffffffffffffffffffffffffffffffffffffff1673ffffffffffffffffffffffffffffffffffffffff16815260200190815260200160002060008282546106379190610af9565b9250508190555081600560008573ffffffffffffffffffffffffffffffffffffffff1673ffffffffffffffffffffffffffffffffffffffff168152602001908152602001600020600082825461068d91906108a7565b925050819055508273ffffffffffffffffffffffffffffffffffffffff163373ffffffffffffffffffffffffffffffffffffffff167f1b89874203ff7f0bba87c969ada3f32fda22ed38a6706d35199d21280c7811b1846040516106f19190610855565b60405180910390a36001905092915050565b60056020528060005260406000206000915090505481565b60008135905061072a81610c97565b92915050565b60008135905061073f81610cae565b92915050565b60006020828403121561075b5761075a610c74565b5b60006107698482850161071b565b91505092915050565b6000806040838503121561078957610788610c74565b5b60006107978582860161071b565b92505060206107a885828601610730565b9150509250929050565b6107bb81610b3f565b82525050565b60006107cc8261088b565b6107d68185610896565b93506107e6818560208601610b82565b6107ef81610c79565b840191505092915050565b61080381610b6b565b82525050565b61081281610b75565b82525050565b600060208201905061082d60008301846107b2565b92915050565b6000602082019050818103600083015261084d81846107c1565b905092915050565b600060208201905061086a60008301846107fa565b92915050565b60006020820190506108856000830184610809565b92915050565b600081519050919050565b600082825260208201905092915050565b60006108b282610b6b565b91506108bd83610b6b565b9250827fffffffffffffffffffffffffffffffffffffffffffffffffffffffffffffffff038211156108f2576108f1610be7565b5b828201905092915050565b600061090882610b6b565b915061091383610b6b565b92508261092357610922610c16565b5b828204905092915050565b6000808291508390505b60018511156109785780860481111561095457610953610be7565b5b60018516156109635780820291505b808102905061097185610c8a565b9450610938565b94509492505050565b600061098c82610b6b565b915061099783610b75565b92506109c47fffffffffffffffffffffffffffffffffffffffffffffffffffffffffffffffff84846109cc565b905092915050565b6000826109dc5760019050610a98565b816109ea5760009050610a98565b8160018114610a005760028114610a0a57610a39565b6001915050610a98565b60ff841115610a1c57610a1b610be7565b5b8360020a915084821115610a3357610a32610be7565b5b50610a98565b5060208310610133831016604e8410600b8410161715610a6e5782820a905083811115610a6957610a68610be7565b5b610a98565b610a7b848484600161092e565b92509050818404811115610a9257610a91610be7565b5b81810290505b9392505050565b6000610aaa82610b6b565b9150610ab583610b6b565b9250817fffffffffffffffffffffffffffffffffffffffffffffffffffffffffffffffff0483118215151615610aee57610aed610be7565b5b828202905092915050565b6000610b0482610b6b565b9150610b0f83610b6b565b925082821015610b2257610b21610be7565b5b828203905092915050565b6000610b3882610b4b565b9050919050565b60008115159050919050565b600073ffffffffffffffffffffffffffffffffffffffff82169050919050565b6000819050919050565b600060ff82169050919050565b60005b83811015610ba0578082015181840152602081019050610b85565b83811115610baf576000848401525b50505050565b60006002820490506001821680610bcd57607f821691505b60208210811415610be157610be0610c45565b5b50919050565b7f4e487b7100000000000000000000000000000000000000000000000000000000600052601160045260246000fd5b7f4e487b7100000000000000000000000000000000000000000000000000000000600052601260045260246000fd5b7f4e487b7100000000000000000000000000000000000000000000000000000000600052602260045260246000fd5b600080fd5b6000601f19601f8301169050919050565b60008160011c9050919050565b610ca081610b2d565b8114610cab57600080fd5b50565b610cb781610b6b565b8114610cc257600080fd5b5056fea26469706673582212202f87db4202654840b1a2b592057d1df13678b5972ec15550b295231613fb1aab64736f6c63430008070033",
  "devdoc": {
    "kind": "dev",
    "methods": {},
    "version": 1
  },
  "userdoc": {
    "kind": "user",
    "methods": {},
    "version": 1
  },
  "storageLayout": {
    "storage": [
      {
        "astId": 5,
        "contract": "contracts/TokenM.sol:TokenM",
        "label": "name",
        "offset": 0,
        "slot": "0",
        "type": "t_string_storage"
      },
      {
        "astId": 7,
        "contract": "contracts/TokenM.sol:TokenM",
        "label": "symbol",
        "offset": 0,
        "slot": "1",
        "type": "t_string_storage"
      },
      {
        "astId": 10,
        "contract": "contracts/TokenM.sol:TokenM",
        "label": "decimals",
        "offset": 0,
        "slot": "2",
        "type": "t_uint8"
      },
      {
        "astId": 12,
        "contract": "contracts/TokenM.sol:TokenM",
        "label": "totalSupply",
        "offset": 0,
        "slot": "3",
        "type": "t_uint256"
      },
      {
        "astId": 14,
        "contract": "contracts/TokenM.sol:TokenM",
        "label": "PRICE",
        "offset": 0,
        "slot": "4",
        "type": "t_uint256"
      },
      {
        "astId": 18,
        "contract": "contracts/TokenM.sol:TokenM",
        "label": "balance",
        "offset": 0,
        "slot": "5",
        "type": "t_mapping(t_address,t_uint256)"
      }
    ],
    "types": {
      "t_address": {
        "encoding": "inplace",
        "label": "address",
        "numberOfBytes": "20"
      },
      "t_mapping(t_address,t_uint256)": {
        "encoding": "mapping",
        "key": "t_address",
        "label": "mapping(address => uint256)",
        "numberOfBytes": "32",
        "value": "t_uint256"
      },
      "t_string_storage": {
        "encoding": "bytes",
        "label": "string",
        "numberOfBytes": "32"
      },
      "t_uint256": {
        "encoding": "inplace",
        "label": "uint256",
        "numberOfBytes": "32"
      },
      "t_uint8": {
        "encoding": "inplace",
        "label": "uint8",
        "numberOfBytes": "1"
      }
    }
  }
}